{
  "contractName": "GamaxTokenCrowdsale",
  "abi": [
    {
      "inputs": [
        {
          "internalType": "uint256",
          "name": "rate_",
          "type": "uint256"
        },
        {
          "internalType": "address payable",
          "name": "wallet_",
          "type": "address"
        },
        {
          "internalType": "contract IERC20",
          "name": "token_",
          "type": "address"
        },
        {
          "internalType": "uint256",
          "name": "openingTime_",
          "type": "uint256"
        },
        {
          "internalType": "uint256",
          "name": "closingTime_",
          "type": "uint256"
        },
        {
          "internalType": "uint256",
          "name": "goal_",
          "type": "uint256"
        }
      ],
      "stateMutability": "nonpayable",
      "type": "constructor"
    },
    {
      "anonymous": false,
      "inputs": [],
      "name": "CrowdsaleFinalized",
      "type": "event"
    },
    {
      "anonymous": false,
      "inputs": [
        {
          "indexed": true,
          "internalType": "address",
          "name": "previousOwner",
          "type": "address"
        },
        {
          "indexed": true,
          "internalType": "address",
          "name": "newOwner",
          "type": "address"
        }
      ],
      "name": "OwnershipTransferred",
      "type": "event"
    },
    {
      "anonymous": false,
      "inputs": [
        {
          "indexed": false,
          "internalType": "uint256",
          "name": "prevClosingTime",
          "type": "uint256"
        },
        {
          "indexed": false,
          "internalType": "uint256",
          "name": "newClosingTime",
          "type": "uint256"
        }
      ],
      "name": "TimedCrowdsaleExtended",
      "type": "event"
    },
    {
      "anonymous": false,
      "inputs": [
        {
          "indexed": true,
          "internalType": "address",
          "name": "purchaser",
          "type": "address"
        },
        {
          "indexed": true,
          "internalType": "address",
          "name": "beneficiary",
          "type": "address"
        },
        {
          "indexed": false,
          "internalType": "uint256",
          "name": "value",
          "type": "uint256"
        },
        {
          "indexed": false,
          "internalType": "uint256",
          "name": "amount",
          "type": "uint256"
        }
      ],
      "name": "TokensPurchased",
      "type": "event"
    },
    {
      "stateMutability": "payable",
      "type": "fallback"
    },
    {
      "inputs": [
        {
          "internalType": "address",
          "name": "account",
          "type": "address"
        }
      ],
      "name": "balanceOf",
      "outputs": [
        {
          "internalType": "uint256",
          "name": "",
          "type": "uint256"
        }
      ],
      "stateMutability": "view",
      "type": "function"
    },
    {
      "inputs": [
        {
          "internalType": "address",
          "name": "beneficiary",
          "type": "address"
        }
      ],
      "name": "buyTokens",
      "outputs": [],
      "stateMutability": "payable",
      "type": "function"
    },
    {
      "inputs": [
        {
          "internalType": "address payable",
          "name": "refundee",
          "type": "address"
        }
      ],
      "name": "claimRefund",
      "outputs": [],
      "stateMutability": "nonpayable",
      "type": "function"
    },
    {
      "inputs": [],
      "name": "closingTime",
      "outputs": [
        {
          "internalType": "uint256",
          "name": "",
          "type": "uint256"
        }
      ],
      "stateMutability": "view",
      "type": "function"
    },
    {
      "inputs": [],
      "name": "finalized",
      "outputs": [
        {
          "internalType": "bool",
          "name": "",
          "type": "bool"
        }
      ],
      "stateMutability": "view",
      "type": "function"
    },
    {
      "inputs": [],
      "name": "goal",
      "outputs": [
        {
          "internalType": "uint256",
          "name": "",
          "type": "uint256"
        }
      ],
      "stateMutability": "view",
      "type": "function"
    },
    {
      "inputs": [],
      "name": "goalReached",
      "outputs": [
        {
          "internalType": "bool",
          "name": "",
          "type": "bool"
        }
      ],
      "stateMutability": "view",
      "type": "function"
    },
    {
      "inputs": [],
      "name": "hasClosed",
      "outputs": [
        {
          "internalType": "bool",
          "name": "",
          "type": "bool"
        }
      ],
      "stateMutability": "view",
      "type": "function"
    },
    {
      "inputs": [],
      "name": "isOpen",
      "outputs": [
        {
          "internalType": "bool",
          "name": "",
          "type": "bool"
        }
      ],
      "stateMutability": "view",
      "type": "function"
    },
    {
      "inputs": [],
      "name": "openingTime",
      "outputs": [
        {
          "internalType": "uint256",
          "name": "",
          "type": "uint256"
        }
      ],
      "stateMutability": "view",
      "type": "function"
    },
    {
      "inputs": [],
      "name": "owner",
      "outputs": [
        {
          "internalType": "address",
          "name": "",
          "type": "address"
        }
      ],
      "stateMutability": "view",
      "type": "function"
    },
    {
      "inputs": [],
      "name": "rate",
      "outputs": [
        {
          "internalType": "uint256",
          "name": "",
          "type": "uint256"
        }
      ],
      "stateMutability": "view",
      "type": "function"
    },
    {
      "inputs": [],
      "name": "renounceOwnership",
      "outputs": [],
      "stateMutability": "nonpayable",
      "type": "function"
    },
    {
      "inputs": [],
      "name": "token",
      "outputs": [
        {
          "internalType": "contract IERC20",
          "name": "",
          "type": "address"
        }
      ],
      "stateMutability": "view",
      "type": "function"
    },
    {
      "inputs": [],
      "name": "tokenBalance",
      "outputs": [
        {
          "internalType": "uint256",
          "name": "",
          "type": "uint256"
        }
      ],
      "stateMutability": "view",
      "type": "function"
    },
    {
      "inputs": [
        {
          "internalType": "address",
          "name": "newOwner",
          "type": "address"
        }
      ],
      "name": "transferOwnership",
      "outputs": [],
      "stateMutability": "nonpayable",
      "type": "function"
    },
    {
      "inputs": [],
      "name": "wallet",
      "outputs": [
        {
          "internalType": "address payable",
          "name": "",
          "type": "address"
        }
      ],
      "stateMutability": "view",
      "type": "function"
    },
    {
      "inputs": [],
      "name": "weiRaised",
      "outputs": [
        {
          "internalType": "uint256",
          "name": "",
          "type": "uint256"
        }
      ],
      "stateMutability": "view",
      "type": "function"
    },
    {
      "inputs": [],
      "name": "withdrawTokens",
      "outputs": [],
      "stateMutability": "nonpayable",
      "type": "function"
    },
    {
      "stateMutability": "payable",
      "type": "receive"
    },
    {
      "inputs": [],
      "name": "setTokenBalance",
      "outputs": [],
      "stateMutability": "nonpayable",
      "type": "function"
    },
    {
      "inputs": [],
      "name": "finalize",
      "outputs": [],
      "stateMutability": "nonpayable",
      "type": "function"
    },
    {
      "inputs": [],
      "name": "withdrawRemainingTokens",
      "outputs": [],
      "stateMutability": "nonpayable",
      "type": "function"
    },
    {
      "inputs": [
        {
          "internalType": "uint256",
          "name": "newClosingTime",
          "type": "uint256"
        }
      ],
      "name": "extendTime",
      "outputs": [],
      "stateMutability": "nonpayable",
      "type": "function"
    }
  ],
  "bytecode": "0x60806040523480156200001157600080fd5b5060405162004dc938038062004dc98339818101604052810190620000379190620005c1565b80838388888860016000819055506200006562000059620003bd60201b60201c565b620003c560201b60201c565b60008311620000ab576040517f08c379a0000000000000000000000000000000000000000000000000000000008152600401620000a290620006be565b60405180910390fd5b600073ffffffffffffffffffffffffffffffffffffffff168273ffffffffffffffffffffffffffffffffffffffff1614156200011e576040517f08c379a0000000000000000000000000000000000000000000000000000000008152600401620001159062000756565b60405180910390fd5b600073ffffffffffffffffffffffffffffffffffffffff168173ffffffffffffffffffffffffffffffffffffffff16141562000191576040517f08c379a00000000000000000000000000000000000000000000000000000000081526004016200018890620007ee565b60405180910390fd5b8260048190555081600360006101000a81548173ffffffffffffffffffffffffffffffffffffffff021916908373ffffffffffffffffffffffffffffffffffffffff16021790555080600260006101000a81548173ffffffffffffffffffffffffffffffffffffffff021916908373ffffffffffffffffffffffffffffffffffffffff1602179055506000600681905550505050428210156200026b576040517f08c379a0000000000000000000000000000000000000000000000000000000008152600401620002629062000886565b60405180910390fd5b818111620002b0576040517f08c379a0000000000000000000000000000000000000000000000000000000008152600401620002a7906200091e565b60405180910390fd5b816007819055508060088190555050506000600a60006101000a81548160ff0219169083151502179055506000811162000321576040517f08c379a0000000000000000000000000000000000000000000000000000000008152600401620003189062000990565b60405180910390fd5b620003316200048b60201b60201c565b6040516200033f90620004b5565b6200034b9190620009c3565b604051809103906000f08015801562000368573d6000803e3d6000fd5b50600c60006101000a81548173ffffffffffffffffffffffffffffffffffffffff021916908373ffffffffffffffffffffffffffffffffffffffff16021790555080600b8190555050505050505050620009e0565b600033905090565b6000600160009054906101000a900473ffffffffffffffffffffffffffffffffffffffff16905081600160006101000a81548173ffffffffffffffffffffffffffffffffffffffff021916908373ffffffffffffffffffffffffffffffffffffffff1602179055508173ffffffffffffffffffffffffffffffffffffffff168173ffffffffffffffffffffffffffffffffffffffff167f8be0079c531659141344cd1fd0a4f28419497f9722a3daafe3b4186f6b6457e060405160405180910390a35050565b6000600360009054906101000a900473ffffffffffffffffffffffffffffffffffffffff16905090565b6118f780620034d283390190565b600080fd5b6000819050919050565b620004dd81620004c8565b8114620004e957600080fd5b50565b600081519050620004fd81620004d2565b92915050565b600073ffffffffffffffffffffffffffffffffffffffff82169050919050565b6000620005308262000503565b9050919050565b620005428162000523565b81146200054e57600080fd5b50565b600081519050620005628162000537565b92915050565b6000620005758262000503565b9050919050565b6000620005898262000568565b9050919050565b6200059b816200057c565b8114620005a757600080fd5b50565b600081519050620005bb8162000590565b92915050565b60008060008060008060c08789031215620005e157620005e0620004c3565b5b6000620005f189828a01620004ec565b96505060206200060489828a0162000551565b95505060406200061789828a01620005aa565b94505060606200062a89828a01620004ec565b93505060806200063d89828a01620004ec565b92505060a06200065089828a01620004ec565b9150509295509295509295565b600082825260208201905092915050565b7f43726f776473616c653a20726174652069732030000000000000000000000000600082015250565b6000620006a66014836200065d565b9150620006b3826200066e565b602082019050919050565b60006020820190508181036000830152620006d98162000697565b9050919050565b7f43726f776473616c653a2077616c6c657420697320746865207a65726f20616460008201527f6472657373000000000000000000000000000000000000000000000000000000602082015250565b60006200073e6025836200065d565b91506200074b82620006e0565b604082019050919050565b6000602082019050818103600083015262000771816200072f565b9050919050565b7f43726f776473616c653a20746f6b656e20697320746865207a65726f2061646460008201527f7265737300000000000000000000000000000000000000000000000000000000602082015250565b6000620007d66024836200065d565b9150620007e38262000778565b604082019050919050565b600060208201905081810360008301526200080981620007c7565b9050919050565b7f54696d656443726f776473616c653a206f70656e696e672074696d652069732060008201527f6265666f72652063757272656e742074696d6500000000000000000000000000602082015250565b60006200086e6033836200065d565b91506200087b8262000810565b604082019050919050565b60006020820190508181036000830152620008a1816200085f565b9050919050565b7f54696d656443726f776473616c653a206f70656e696e672074696d652069732060008201527f6e6f74206265666f726520636c6f73696e672074696d65000000000000000000602082015250565b6000620009066037836200065d565b91506200091382620008a8565b604082019050919050565b600060208201905081810360008301526200093981620008f7565b9050919050565b7f526566756e6461626c6543726f776473616c653a20676f616c20697320300000600082015250565b600062000978601e836200065d565b9150620009858262000940565b602082019050919050565b60006020820190508181036000830152620009ab8162000969565b9050919050565b620009bd8162000523565b82525050565b6000602082019050620009da6000830184620009b2565b92915050565b612ae280620009f06000396000f3fe6080604052600436106101445760003560e01c80637d3d6522116100b6578063b3f05b971161006f578063b3f05b97146103f4578063b7a8807c1461041f578063bffa55d51461044a578063ec8ac4d814610473578063f2fde38b1461048f578063fc0c546a146104b85761015b565b80637d3d65221461031c5780638afbf669146103475780638d8f2adb1461035e5780638da5cb5b146103755780639e1a4d19146103a0578063a27aebbc146103cb5761015b565b80634b6753bc116101085780634b6753bc146102445780634bb278f31461026f578063521eb27314610286578063613ba5ef146102b157806370a08231146102c8578063715018a6146103055761015b565b80631515bc2b1461016d5780632c4e722e1461019857806340193883146101c35780634042b66f146101ee57806347535d7b146102195761015b565b3661015b576101596101546104e3565b6104eb565b005b61016b6101666104e3565b6104eb565b005b34801561017957600080fd5b506101826106a0565b60405161018f91906119f2565b60405180910390f35b3480156101a457600080fd5b506101ad6106ac565b6040516101ba9190611a26565b60405180910390f35b3480156101cf57600080fd5b506101d86106b6565b6040516101e59190611a26565b60405180910390f35b3480156101fa57600080fd5b506102036106c0565b6040516102109190611a26565b60405180910390f35b34801561022557600080fd5b5061022e6106ca565b60405161023b91906119f2565b60405180910390f35b34801561025057600080fd5b506102596106e5565b6040516102669190611a26565b60405180910390f35b34801561027b57600080fd5b506102846106ef565b005b34801561029257600080fd5b5061029b610793565b6040516102a89190611a82565b60405180910390f35b3480156102bd57600080fd5b506102c66107bd565b005b3480156102d457600080fd5b506102ef60048036038101906102ea9190611ae0565b610843565b6040516102fc9190611a26565b60405180910390f35b34801561031157600080fd5b5061031a61088c565b005b34801561032857600080fd5b50610331610914565b60405161033e91906119f2565b60405180910390f35b34801561035357600080fd5b5061035c610928565b005b34801561036a57600080fd5b50610373610ca8565b005b34801561038157600080fd5b5061038a610d40565b6040516103979190611b1c565b60405180910390f35b3480156103ac57600080fd5b506103b5610d6a565b6040516103c29190611a26565b60405180910390f35b3480156103d757600080fd5b506103f260048036038101906103ed9190611b63565b610d74565b005b34801561040057600080fd5b50610409610dfc565b60405161041691906119f2565b60405180910390f35b34801561042b57600080fd5b50610434610e13565b6040516104419190611a26565b60405180910390f35b34801561045657600080fd5b50610471600480360381019061046c9190611bbc565b610e1d565b005b61048d60048036038101906104889190611ae0565b6104eb565b005b34801561049b57600080fd5b506104b660048036038101906104b19190611ae0565b610f3c565b005b3480156104c457600080fd5b506104cd611034565b6040516104da9190611c48565b60405180910390f35b600033905090565b60026000541415610531576040517f08c379a000000000000000000000000000000000000000000000000000000000815260040161052890611cc0565b60405180910390fd5b600260008190555060006006541161057e576040517f08c379a000000000000000000000000000000000000000000000000000000000815260040161057590611d2c565b60405180910390fd5b600034905061058d828261105e565b6000610598826110b3565b9050806105a3610d6a565b10156105e4576040517f08c379a00000000000000000000000000000000000000000000000000000000081526004016105db90611dbe565b60405180910390fd5b6105f9826005546110d190919063ffffffff16565b60058190555061060983826110e7565b8273ffffffffffffffffffffffffffffffffffffffff166106286104e3565b73ffffffffffffffffffffffffffffffffffffffff167f6faf93231a456e552dbc9961f58d9713ee4f2e69d15f1975b050ef0911053a7b848460405161066f929190611dde565b60405180910390a3610681838361119b565b61068961119f565b6106938383611236565b5050600160008190555050565b60006008544211905090565b6000600454905090565b6000600b54905090565b6000600554905090565b600060075442101580156106e057506008544211155b905090565b6000600854905090565b6106f76104e3565b73ffffffffffffffffffffffffffffffffffffffff16610715610d40565b73ffffffffffffffffffffffffffffffffffffffff161461076b576040517f08c379a000000000000000000000000000000000000000000000000000000000815260040161076290611e53565b60405180910390fd5b426008541115610789576001426107829190611ea2565b6008819055505b61079161123a565b565b6000600360009054906101000a900473ffffffffffffffffffffffffffffffffffffffff16905090565b6107c56104e3565b73ffffffffffffffffffffffffffffffffffffffff166107e3610d40565b73ffffffffffffffffffffffffffffffffffffffff1614610839576040517f08c379a000000000000000000000000000000000000000000000000000000000815260040161083090611e53565b60405180910390fd5b610841611322565b565b6000600960008373ffffffffffffffffffffffffffffffffffffffff1673ffffffffffffffffffffffffffffffffffffffff168152602001908152602001600020549050919050565b6108946104e3565b73ffffffffffffffffffffffffffffffffffffffff166108b2610d40565b73ffffffffffffffffffffffffffffffffffffffff1614610908576040517f08c379a00000000000000000000000000000000000000000000000000000000081526004016108ff90611e53565b60405180910390fd5b61091260006113ff565b565b6000600b546109216106c0565b1015905090565b6109306104e3565b73ffffffffffffffffffffffffffffffffffffffff1661094e610d40565b73ffffffffffffffffffffffffffffffffffffffff16146109a4576040517f08c379a000000000000000000000000000000000000000000000000000000000815260040161099b90611e53565b60405180910390fd5b6109ac6106a0565b6109eb576040517f08c379a00000000000000000000000000000000000000000000000000000000081526004016109e290611f22565b60405180910390fd5b6109f3610dfc565b610a32576040517f08c379a0000000000000000000000000000000000000000000000000000000008152600401610a2990611fb4565b60405180910390fd5b6000610a3c610d6a565b11610a7c576040517f08c379a0000000000000000000000000000000000000000000000000000000008152600401610a7390612046565b60405180910390fd5b610a84610914565b15610b3157610a91611034565b73ffffffffffffffffffffffffffffffffffffffff1663a9059cbb610ab4610793565b610abc610d6a565b6040518363ffffffff1660e01b8152600401610ad9929190612087565b602060405180830381600087803b158015610af357600080fd5b505af1158015610b07573d6000803e3d6000fd5b505050506040513d601f19601f82011682018060405250810190610b2b91906120dc565b50610ca6565b6000610b3b611034565b73ffffffffffffffffffffffffffffffffffffffff166370a08231306040518263ffffffff1660e01b8152600401610b739190611b1c565b60206040518083038186803b158015610b8b57600080fd5b505afa158015610b9f573d6000803e3d6000fd5b505050506040513d601f19601f82011682018060405250810190610bc3919061211e565b905060008111610c08576040517f08c379a0000000000000000000000000000000000000000000000000000000008152600401610bff906121bd565b60405180910390fd5b610c10611034565b73ffffffffffffffffffffffffffffffffffffffff1663a9059cbb610c33610793565b836040518363ffffffff1660e01b8152600401610c51929190612087565b602060405180830381600087803b158015610c6b57600080fd5b505af1158015610c7f573d6000803e3d6000fd5b505050506040513d601f19601f82011682018060405250810190610ca391906120dc565b50505b565b610cb0610dfc565b610cef576040517f08c379a0000000000000000000000000000000000000000000000000000000008152600401610ce69061224f565b60405180910390fd5b610cf7610914565b610d36576040517f08c379a0000000000000000000000000000000000000000000000000000000008152600401610d2d906122e1565b60405180910390fd5b610d3e6114c5565b565b6000600160009054906101000a900473ffffffffffffffffffffffffffffffffffffffff16905090565b6000600654905090565b610d7c6104e3565b73ffffffffffffffffffffffffffffffffffffffff16610d9a610d40565b73ffffffffffffffffffffffffffffffffffffffff1614610df0576040517f08c379a0000000000000000000000000000000000000000000000000000000008152600401610de790611e53565b60405180910390fd5b610df98161167d565b50565b6000600a60009054906101000a900460ff16905090565b6000600754905090565b610e25610dfc565b610e64576040517f08c379a0000000000000000000000000000000000000000000000000000000008152600401610e5b90612373565b60405180910390fd5b610e6c610914565b15610eac576040517f08c379a0000000000000000000000000000000000000000000000000000000008152600401610ea390612405565b60405180910390fd5b600c60009054906101000a900473ffffffffffffffffffffffffffffffffffffffff1673ffffffffffffffffffffffffffffffffffffffff166351cff8d9826040518263ffffffff1660e01b8152600401610f079190611a82565b600060405180830381600087803b158015610f2157600080fd5b505af1158015610f35573d6000803e3d6000fd5b5050505050565b610f446104e3565b73ffffffffffffffffffffffffffffffffffffffff16610f62610d40565b73ffffffffffffffffffffffffffffffffffffffff1614610fb8576040517f08c379a0000000000000000000000000000000000000000000000000000000008152600401610faf90611e53565b60405180910390fd5b600073ffffffffffffffffffffffffffffffffffffffff168173ffffffffffffffffffffffffffffffffffffffff161415611028576040517f08c379a000000000000000000000000000000000000000000000000000000000815260040161101f90612497565b60405180910390fd5b611031816113ff565b50565b6000600260009054906101000a900473ffffffffffffffffffffffffffffffffffffffff16905090565b6110666106ca565b6110a5576040517f08c379a000000000000000000000000000000000000000000000000000000000815260040161109c90612503565b60405180910390fd5b6110af828261174e565b5050565b60006110ca6004548361180690919063ffffffff16565b9050919050565b600081836110df9190612523565b905092915050565b61113981600960008573ffffffffffffffffffffffffffffffffffffffff1673ffffffffffffffffffffffffffffffffffffffff168152602001908152602001600020546110d190919063ffffffff16565b600960008473ffffffffffffffffffffffffffffffffffffffff1673ffffffffffffffffffffffffffffffffffffffff168152602001908152602001600020819055506111918160065461181c90919063ffffffff16565b6006819055505050565b5050565b600c60009054906101000a900473ffffffffffffffffffffffffffffffffffffffff1673ffffffffffffffffffffffffffffffffffffffff1663f340fa01346111e66104e3565b6040518363ffffffff1660e01b81526004016112029190611b1c565b6000604051808303818588803b15801561121b57600080fd5b505af115801561122f573d6000803e3d6000fd5b5050505050565b5050565b600a60009054906101000a900460ff161561128a576040517f08c379a0000000000000000000000000000000000000000000000000000000008152600401611281906125eb565b60405180910390fd5b6112926106a0565b6112d1576040517f08c379a00000000000000000000000000000000000000000000000000000000081526004016112c890612657565b60405180910390fd5b6001600a60006101000a81548160ff0219169083151502179055506112f4611832565b7f9270cc390c096600a1c17c44345a1ba689fafd99d97487b10cfccf86cf73183660405160405180910390a1565b600060065414611367576040517f08c379a000000000000000000000000000000000000000000000000000000000815260040161135e906126e9565b60405180910390fd5b61136f611034565b73ffffffffffffffffffffffffffffffffffffffff166370a08231306040518263ffffffff1660e01b81526004016113a79190611b1c565b60206040518083038186803b1580156113bf57600080fd5b505afa1580156113d3573d6000803e3d6000fd5b505050506040513d601f19601f820116820180604052508101906113f7919061211e565b600681905550565b6000600160009054906101000a900473ffffffffffffffffffffffffffffffffffffffff16905081600160006101000a81548173ffffffffffffffffffffffffffffffffffffffff021916908373ffffffffffffffffffffffffffffffffffffffff1602179055508173ffffffffffffffffffffffffffffffffffffffff168173ffffffffffffffffffffffffffffffffffffffff167f8be0079c531659141344cd1fd0a4f28419497f9722a3daafe3b4186f6b6457e060405160405180910390a35050565b60006114cf6104e3565b90506114d96106a0565b611518576040517f08c379a000000000000000000000000000000000000000000000000000000000815260040161150f9061277b565b60405180910390fd5b6000600960008373ffffffffffffffffffffffffffffffffffffffff1673ffffffffffffffffffffffffffffffffffffffff1681526020019081526020016000205490506000811161159f576040517f08c379a00000000000000000000000000000000000000000000000000000000081526004016115969061280d565b60405180910390fd5b6000600960008473ffffffffffffffffffffffffffffffffffffffff1673ffffffffffffffffffffffffffffffffffffffff168152602001908152602001600020819055506115ec611034565b73ffffffffffffffffffffffffffffffffffffffff1663a9059cbb83836040518363ffffffff1660e01b815260040161162692919061282d565b602060405180830381600087803b15801561164057600080fd5b505af1158015611654573d6000803e3d6000fd5b505050506040513d601f19601f8201168201806040525081019061167891906120dc565b505050565b6116856106a0565b156116c5576040517f08c379a00000000000000000000000000000000000000000000000000000000081526004016116bc906128a2565b60405180910390fd5b6008548111611709576040517f08c379a000000000000000000000000000000000000000000000000000000000815260040161170090612934565b60405180910390fd5b7f46711e222f558a07afd26e5e71b48ecb0a8b2cdcd40faeb1323e05e2c76a2f326008548260405161173c929190611dde565b60405180910390a18060088190555050565b600073ffffffffffffffffffffffffffffffffffffffff168273ffffffffffffffffffffffffffffffffffffffff1614156117be576040517f08c379a00000000000000000000000000000000000000000000000000000000081526004016117b5906129c6565b60405180910390fd5b6000811415611802576040517f08c379a00000000000000000000000000000000000000000000000000000000081526004016117f990612a32565b60405180910390fd5b5050565b600081836118149190612a52565b905092915050565b6000818361182a9190611ea2565b905092915050565b61183a610914565b1561194857600c60009054906101000a900473ffffffffffffffffffffffffffffffffffffffff1673ffffffffffffffffffffffffffffffffffffffff166343d726d66040518163ffffffff1660e01b8152600401600060405180830381600087803b1580156118a957600080fd5b505af11580156118bd573d6000803e3d6000fd5b50505050600c60009054906101000a900473ffffffffffffffffffffffffffffffffffffffff1673ffffffffffffffffffffffffffffffffffffffff16639af6549a6040518163ffffffff1660e01b8152600401600060405180830381600087803b15801561192b57600080fd5b505af115801561193f573d6000803e3d6000fd5b505050506119cb565b600c60009054906101000a900473ffffffffffffffffffffffffffffffffffffffff1673ffffffffffffffffffffffffffffffffffffffff16638c52dc416040518163ffffffff1660e01b8152600401600060405180830381600087803b1580156119b257600080fd5b505af11580156119c6573d6000803e3d6000fd5b505050505b6119d36119d5565b565b565b60008115159050919050565b6119ec816119d7565b82525050565b6000602082019050611a0760008301846119e3565b92915050565b6000819050919050565b611a2081611a0d565b82525050565b6000602082019050611a3b6000830184611a17565b92915050565b600073ffffffffffffffffffffffffffffffffffffffff82169050919050565b6000611a6c82611a41565b9050919050565b611a7c81611a61565b82525050565b6000602082019050611a976000830184611a73565b92915050565b600080fd5b6000611aad82611a41565b9050919050565b611abd81611aa2565b8114611ac857600080fd5b50565b600081359050611ada81611ab4565b92915050565b600060208284031215611af657611af5611a9d565b5b6000611b0484828501611acb565b91505092915050565b611b1681611aa2565b82525050565b6000602082019050611b316000830184611b0d565b92915050565b611b4081611a0d565b8114611b4b57600080fd5b50565b600081359050611b5d81611b37565b92915050565b600060208284031215611b7957611b78611a9d565b5b6000611b8784828501611b4e565b91505092915050565b611b9981611a61565b8114611ba457600080fd5b50565b600081359050611bb681611b90565b92915050565b600060208284031215611bd257611bd1611a9d565b5b6000611be084828501611ba7565b91505092915050565b6000819050919050565b6000611c0e611c09611c0484611a41565b611be9565b611a41565b9050919050565b6000611c2082611bf3565b9050919050565b6000611c3282611c15565b9050919050565b611c4281611c27565b82525050565b6000602082019050611c5d6000830184611c39565b92915050565b600082825260208201905092915050565b7f5265656e7472616e637947756172643a207265656e7472616e742063616c6c00600082015250565b6000611caa601f83611c63565b9150611cb582611c74565b602082019050919050565b60006020820190508181036000830152611cd981611c9d565b9050919050565b7f4e6f7420656e6f75676820746f6b656e20746f2073656c6c0000000000000000600082015250565b6000611d16601883611c63565b9150611d2182611ce0565b602082019050919050565b60006020820190508181036000830152611d4581611d09565b9050919050565b7f546865726520617265206e6f7420656e6f75676820746f6b656e7320746f206260008201527f7579000000000000000000000000000000000000000000000000000000000000602082015250565b6000611da8602283611c63565b9150611db382611d4c565b604082019050919050565b60006020820190508181036000830152611dd781611d9b565b9050919050565b6000604082019050611df36000830185611a17565b611e006020830184611a17565b9392505050565b7f4f776e61626c653a2063616c6c6572206973206e6f7420746865206f776e6572600082015250565b6000611e3d602083611c63565b9150611e4882611e07565b602082019050919050565b60006020820190508181036000830152611e6c81611e30565b9050919050565b7f4e487b7100000000000000000000000000000000000000000000000000000000600052601160045260246000fd5b6000611ead82611a0d565b9150611eb883611a0d565b925082821015611ecb57611eca611e73565b5b828203905092915050565b7f5468652063726f776473616c65206973206e6f7420636c6f7365642079657400600082015250565b6000611f0c601f83611c63565b9150611f1782611ed6565b602082019050919050565b60006020820190508181036000830152611f3b81611eff565b9050919050565b7f7468652063726f776473616c65206973206e6f742066696e616c697a6564207960008201527f6574000000000000000000000000000000000000000000000000000000000000602082015250565b6000611f9e602283611c63565b9150611fa982611f42565b604082019050919050565b60006020820190508181036000830152611fcd81611f91565b9050919050565b7f4f6e6c7920617661696c61626c6520696620746f6b656e42616c616e6365206960008201527f732067726561746572207468616e207a65726f00000000000000000000000000602082015250565b6000612030603383611c63565b915061203b82611fd4565b604082019050919050565b6000602082019050818103600083015261205f81612023565b9050919050565b600061207182611c15565b9050919050565b61208181612066565b82525050565b600060408201905061209c6000830185612078565b6120a96020830184611a17565b9392505050565b6120b9816119d7565b81146120c457600080fd5b50565b6000815190506120d6816120b0565b92915050565b6000602082840312156120f2576120f1611a9d565b5b6000612100848285016120c7565b91505092915050565b60008151905061211881611b37565b92915050565b60006020828403121561213457612133611a9d565b5b600061214284828501612109565b91505092915050565b7f5468657265206973206e6f2062616c616e636520617661696c61626c6520746f60008201527f207472616e736665720000000000000000000000000000000000000000000000602082015250565b60006121a7602983611c63565b91506121b28261214b565b604082019050919050565b600060208201905081810360008301526121d68161219a565b9050919050565b7f526566756e6461626c65506f737444656c697665727943726f776473616c653a60008201527f206e6f742066696e616c697a6564000000000000000000000000000000000000602082015250565b6000612239602e83611c63565b9150612244826121dd565b604082019050919050565b600060208201905081810360008301526122688161222c565b9050919050565b7f526566756e6461626c65506f737444656c697665727943726f776473616c653a60008201527f20676f616c206e6f742072656163686564000000000000000000000000000000602082015250565b60006122cb603183611c63565b91506122d68261226f565b604082019050919050565b600060208201905081810360008301526122fa816122be565b9050919050565b7f526566756e6461626c6543726f776473616c653a206e6f742066696e616c697a60008201527f6564000000000000000000000000000000000000000000000000000000000000602082015250565b600061235d602283611c63565b915061236882612301565b604082019050919050565b6000602082019050818103600083015261238c81612350565b9050919050565b7f526566756e6461626c6543726f776473616c653a20676f616c2072656163686560008201527f6400000000000000000000000000000000000000000000000000000000000000602082015250565b60006123ef602183611c63565b91506123fa82612393565b604082019050919050565b6000602082019050818103600083015261241e816123e2565b9050919050565b7f4f776e61626c653a206e6577206f776e657220697320746865207a65726f206160008201527f6464726573730000000000000000000000000000000000000000000000000000602082015250565b6000612481602683611c63565b915061248c82612425565b604082019050919050565b600060208201905081810360008301526124b081612474565b9050919050565b7f54696d656443726f776473616c653a206e6f74206f70656e0000000000000000600082015250565b60006124ed601883611c63565b91506124f8826124b7565b602082019050919050565b6000602082019050818103600083015261251c816124e0565b9050919050565b600061252e82611a0d565b915061253983611a0d565b9250827fffffffffffffffffffffffffffffffffffffffffffffffffffffffffffffffff0382111561256e5761256d611e73565b5b828201905092915050565b7f46696e616c697a61626c6543726f776473616c653a20616c726561647920666960008201527f6e616c697a656400000000000000000000000000000000000000000000000000602082015250565b60006125d5602783611c63565b91506125e082612579565b604082019050919050565b60006020820190508181036000830152612604816125c8565b9050919050565b7f46696e616c697a61626c6543726f776473616c653a206e6f7420636c6f736564600082015250565b6000612641602083611c63565b915061264c8261260b565b602082019050919050565b6000602082019050818103600083015261267081612634565b9050919050565b7f4368616e676520746f6b656e2062616c616e6365206973206f6e6c7920616c6c60008201527f6f776564207768656e2062616c616e636520697320657175616c207a65726f00602082015250565b60006126d3603f83611c63565b91506126de82612677565b604082019050919050565b60006020820190508181036000830152612702816126c6565b9050919050565b7f506f737444656c697665727943726f776473616c653a206e6f7420636c6f736560008201527f6400000000000000000000000000000000000000000000000000000000000000602082015250565b6000612765602183611c63565b915061277082612709565b604082019050919050565b6000602082019050818103600083015261279481612758565b9050919050565b7f506f737444656c697665727943726f776473616c653a2062656e65666963696160008201527f7279206973206e6f742064756520616e7920746f6b656e730000000000000000602082015250565b60006127f7603883611c63565b91506128028261279b565b604082019050919050565b60006020820190508181036000830152612826816127ea565b9050919050565b60006040820190506128426000830185611b0d565b61284f6020830184611a17565b9392505050565b7f54696d656443726f776473616c653a20616c726561647920636c6f7365640000600082015250565b600061288c601e83611c63565b915061289782612856565b602082019050919050565b600060208201905081810360008301526128bb8161287f565b9050919050565b7f54696d656443726f776473616c653a206e657720636c6f73696e672074696d6560008201527f206973206265666f72652063757272656e7420636c6f73696e672074696d6500602082015250565b600061291e603f83611c63565b9150612929826128c2565b604082019050919050565b6000602082019050818103600083015261294d81612911565b9050919050565b7f43726f776473616c653a2062656e656669636961727920697320746865207a6560008201527f726f206164647265737300000000000000000000000000000000000000000000602082015250565b60006129b0602a83611c63565b91506129bb82612954565b604082019050919050565b600060208201905081810360008301526129df816129a3565b9050919050565b7f43726f776473616c653a20776569416d6f756e74206973203000000000000000600082015250565b6000612a1c601983611c63565b9150612a27826129e6565b602082019050919050565b60006020820190508181036000830152612a4b81612a0f565b9050919050565b6000612a5d82611a0d565b9150612a6883611a0d565b9250817fffffffffffffffffffffffffffffffffffffffffffffffffffffffffffffffff0483118215151615612aa157612aa0611e73565b5b82820290509291505056fea2646970667358221220cd435266042b98ac994ed0dffe70a105efe01e28de4b86aca62ee9caa19c19d664736f6c6343000809003360a06040523480156200001157600080fd5b50604051620018f7380380620018f7833981810160405281019062000037919062000269565b620000576200004b6200013360201b60201c565b6200013b60201b60201c565b600073ffffffffffffffffffffffffffffffffffffffff168173ffffffffffffffffffffffffffffffffffffffff161415620000ca576040517f08c379a0000000000000000000000000000000000000000000000000000000008152600401620000c19062000322565b60405180910390fd5b8073ffffffffffffffffffffffffffffffffffffffff1660808173ffffffffffffffffffffffffffffffffffffffff16815250506000600260006101000a81548160ff0219169083600281111562000127576200012662000344565b5b02179055505062000373565b600033905090565b60008060009054906101000a900473ffffffffffffffffffffffffffffffffffffffff169050816000806101000a81548173ffffffffffffffffffffffffffffffffffffffff021916908373ffffffffffffffffffffffffffffffffffffffff1602179055508173ffffffffffffffffffffffffffffffffffffffff168173ffffffffffffffffffffffffffffffffffffffff167f8be0079c531659141344cd1fd0a4f28419497f9722a3daafe3b4186f6b6457e060405160405180910390a35050565b600080fd5b600073ffffffffffffffffffffffffffffffffffffffff82169050919050565b6000620002318262000204565b9050919050565b620002438162000224565b81146200024f57600080fd5b50565b600081519050620002638162000238565b92915050565b600060208284031215620002825762000281620001ff565b5b6000620002928482850162000252565b91505092915050565b600082825260208201905092915050565b7f526566756e64457363726f773a2062656e65666963696172792069732074686560008201527f207a65726f206164647265737300000000000000000000000000000000000000602082015250565b60006200030a602d836200029b565b91506200031782620002ac565b604082019050919050565b600060208201905081810360008301526200033d81620002fb565b9050919050565b7f4e487b7100000000000000000000000000000000000000000000000000000000600052602160045260246000fd5b6080516115686200038f600039600061027501526115686000f3fe6080604052600436106100a75760003560e01c80638da5cb5b116100645780638da5cb5b146101825780639af6549a146101ad578063c19d93fb146101c4578063e3a9db1a146101ef578063f2fde38b1461022c578063f340fa0114610255576100a7565b806338af3eed146100ac57806343d726d6146100d757806351cff8d9146100ee578063685ca19414610117578063715018a6146101545780638c52dc411461016b575b600080fd5b3480156100b857600080fd5b506100c1610271565b6040516100ce9190610d76565b60405180910390f35b3480156100e357600080fd5b506100ec610299565b005b3480156100fa57600080fd5b5061011560048036038101906101109190610dc2565b6103db565b005b34801561012357600080fd5b5061013e60048036038101906101399190610e2d565b61042f565b60405161014b9190610e75565b60405180910390f35b34801561016057600080fd5b50610169610467565b005b34801561017757600080fd5b506101806104ef565b005b34801561018e57600080fd5b50610197610632565b6040516101a49190610e9f565b60405180910390f35b3480156101b957600080fd5b506101c261065b565b005b3480156101d057600080fd5b506101d96106fa565b6040516101e69190610f31565b60405180910390f35b3480156101fb57600080fd5b5061021660048036038101906102119190610e2d565b610711565b6040516102239190610f65565b60405180910390f35b34801561023857600080fd5b50610253600480360381019061024e9190610e2d565b61075a565b005b61026f600480360381019061026a9190610e2d565b610852565b005b60007f0000000000000000000000000000000000000000000000000000000000000000905090565b6102a16108cc565b73ffffffffffffffffffffffffffffffffffffffff166102bf610632565b73ffffffffffffffffffffffffffffffffffffffff1614610315576040517f08c379a000000000000000000000000000000000000000000000000000000000815260040161030c90610fdd565b60405180910390fd5b6000600281111561032957610328610eba565b5b6103316106fa565b600281111561034357610342610eba565b5b14610383576040517f08c379a000000000000000000000000000000000000000000000000000000000815260040161037a9061106f565b60405180910390fd5b60028060006101000a81548160ff021916908360028111156103a8576103a7610eba565b5b02179055507f088672c3a6e342f7cd94a65ba63b79df24a8973927b4d05d803c44bbf787d12f60405160405180910390a1565b6103e48161042f565b610423576040517f08c379a000000000000000000000000000000000000000000000000000000000815260040161041a90611101565b60405180910390fd5b61042c816108d4565b50565b60006001600281111561044557610444610eba565b5b61044d6106fa565b600281111561045f5761045e610eba565b5b149050919050565b61046f6108cc565b73ffffffffffffffffffffffffffffffffffffffff1661048d610632565b73ffffffffffffffffffffffffffffffffffffffff16146104e3576040517f08c379a00000000000000000000000000000000000000000000000000000000081526004016104da90610fdd565b60405180910390fd5b6104ed6000610a54565b565b6104f76108cc565b73ffffffffffffffffffffffffffffffffffffffff16610515610632565b73ffffffffffffffffffffffffffffffffffffffff161461056b576040517f08c379a000000000000000000000000000000000000000000000000000000000815260040161056290610fdd565b60405180910390fd5b6000600281111561057f5761057e610eba565b5b6105876106fa565b600281111561059957610598610eba565b5b146105d9576040517f08c379a00000000000000000000000000000000000000000000000000000000081526004016105d090611193565b60405180910390fd5b6001600260006101000a81548160ff021916908360028111156105ff576105fe610eba565b5b02179055507f599d8e5a83cffb867d051598c4d70e805d59802d8081c1c7d6dffc5b6aca2b8960405160405180910390a1565b60008060009054906101000a900473ffffffffffffffffffffffffffffffffffffffff16905090565b60028081111561066e5761066d610eba565b5b6106766106fa565b600281111561068857610687610eba565b5b146106c8576040517f08c379a00000000000000000000000000000000000000000000000000000000081526004016106bf90611225565b60405180910390fd5b6106f8476106d4610271565b73ffffffffffffffffffffffffffffffffffffffff16610b1890919063ffffffff16565b565b6000600260009054906101000a900460ff16905090565b6000600160008373ffffffffffffffffffffffffffffffffffffffff1673ffffffffffffffffffffffffffffffffffffffff168152602001908152602001600020549050919050565b6107626108cc565b73ffffffffffffffffffffffffffffffffffffffff16610780610632565b73ffffffffffffffffffffffffffffffffffffffff16146107d6576040517f08c379a00000000000000000000000000000000000000000000000000000000081526004016107cd90610fdd565b60405180910390fd5b600073ffffffffffffffffffffffffffffffffffffffff168173ffffffffffffffffffffffffffffffffffffffff161415610846576040517f08c379a000000000000000000000000000000000000000000000000000000000815260040161083d906112b7565b60405180910390fd5b61084f81610a54565b50565b6000600281111561086657610865610eba565b5b61086e6106fa565b60028111156108805761087f610eba565b5b146108c0576040517f08c379a00000000000000000000000000000000000000000000000000000000081526004016108b790611349565b60405180910390fd5b6108c981610c0c565b50565b600033905090565b6108dc6108cc565b73ffffffffffffffffffffffffffffffffffffffff166108fa610632565b73ffffffffffffffffffffffffffffffffffffffff1614610950576040517f08c379a000000000000000000000000000000000000000000000000000000000815260040161094790610fdd565b60405180910390fd5b6000600160008373ffffffffffffffffffffffffffffffffffffffff1673ffffffffffffffffffffffffffffffffffffffff1681526020019081526020016000205490506000600160008473ffffffffffffffffffffffffffffffffffffffff1673ffffffffffffffffffffffffffffffffffffffff16815260200190815260200160002081905550610a02818373ffffffffffffffffffffffffffffffffffffffff16610b1890919063ffffffff16565b8173ffffffffffffffffffffffffffffffffffffffff167f7084f5476618d8e60b11ef0d7d3f06914655adb8793e28ff7f018d4c76d505d582604051610a489190610f65565b60405180910390a25050565b60008060009054906101000a900473ffffffffffffffffffffffffffffffffffffffff169050816000806101000a81548173ffffffffffffffffffffffffffffffffffffffff021916908373ffffffffffffffffffffffffffffffffffffffff1602179055508173ffffffffffffffffffffffffffffffffffffffff168173ffffffffffffffffffffffffffffffffffffffff167f8be0079c531659141344cd1fd0a4f28419497f9722a3daafe3b4186f6b6457e060405160405180910390a35050565b80471015610b5b576040517f08c379a0000000000000000000000000000000000000000000000000000000008152600401610b52906113b5565b60405180910390fd5b60008273ffffffffffffffffffffffffffffffffffffffff1682604051610b8190611406565b60006040518083038185875af1925050503d8060008114610bbe576040519150601f19603f3d011682016040523d82523d6000602084013e610bc3565b606091505b5050905080610c07576040517f08c379a0000000000000000000000000000000000000000000000000000000008152600401610bfe9061148d565b60405180910390fd5b505050565b610c146108cc565b73ffffffffffffffffffffffffffffffffffffffff16610c32610632565b73ffffffffffffffffffffffffffffffffffffffff1614610c88576040517f08c379a0000000000000000000000000000000000000000000000000000000008152600401610c7f90610fdd565b60405180910390fd5b600034905080600160008473ffffffffffffffffffffffffffffffffffffffff1673ffffffffffffffffffffffffffffffffffffffff1681526020019081526020016000206000828254610cdc91906114dc565b925050819055508173ffffffffffffffffffffffffffffffffffffffff167f2da466a7b24304f47e87fa2e1e5a81b9831ce54fec19055ce277ca2f39ba42c482604051610d299190610f65565b60405180910390a25050565b600073ffffffffffffffffffffffffffffffffffffffff82169050919050565b6000610d6082610d35565b9050919050565b610d7081610d55565b82525050565b6000602082019050610d8b6000830184610d67565b92915050565b600080fd5b610d9f81610d55565b8114610daa57600080fd5b50565b600081359050610dbc81610d96565b92915050565b600060208284031215610dd857610dd7610d91565b5b6000610de684828501610dad565b91505092915050565b6000610dfa82610d35565b9050919050565b610e0a81610def565b8114610e1557600080fd5b50565b600081359050610e2781610e01565b92915050565b600060208284031215610e4357610e42610d91565b5b6000610e5184828501610e18565b91505092915050565b60008115159050919050565b610e6f81610e5a565b82525050565b6000602082019050610e8a6000830184610e66565b92915050565b610e9981610def565b82525050565b6000602082019050610eb46000830184610e90565b92915050565b7f4e487b7100000000000000000000000000000000000000000000000000000000600052602160045260246000fd5b60038110610efa57610ef9610eba565b5b50565b6000819050610f0b82610ee9565b919050565b6000610f1b82610efd565b9050919050565b610f2b81610f10565b82525050565b6000602082019050610f466000830184610f22565b92915050565b6000819050919050565b610f5f81610f4c565b82525050565b6000602082019050610f7a6000830184610f56565b92915050565b600082825260208201905092915050565b7f4f776e61626c653a2063616c6c6572206973206e6f7420746865206f776e6572600082015250565b6000610fc7602083610f80565b9150610fd282610f91565b602082019050919050565b60006020820190508181036000830152610ff681610fba565b9050919050565b7f526566756e64457363726f773a2063616e206f6e6c7920636c6f73652077686960008201527f6c65206163746976650000000000000000000000000000000000000000000000602082015250565b6000611059602983610f80565b915061106482610ffd565b604082019050919050565b600060208201905081810360008301526110888161104c565b9050919050565b7f436f6e646974696f6e616c457363726f773a207061796565206973206e6f742060008201527f616c6c6f77656420746f20776974686472617700000000000000000000000000602082015250565b60006110eb603383610f80565b91506110f68261108f565b604082019050919050565b6000602082019050818103600083015261111a816110de565b9050919050565b7f526566756e64457363726f773a2063616e206f6e6c7920656e61626c6520726560008201527f66756e6473207768696c65206163746976650000000000000000000000000000602082015250565b600061117d603283610f80565b915061118882611121565b604082019050919050565b600060208201905081810360008301526111ac81611170565b9050919050565b7f526566756e64457363726f773a2062656e65666963696172792063616e206f6e60008201527f6c79207769746864726177207768696c6520636c6f7365640000000000000000602082015250565b600061120f603883610f80565b915061121a826111b3565b604082019050919050565b6000602082019050818103600083015261123e81611202565b9050919050565b7f4f776e61626c653a206e6577206f776e657220697320746865207a65726f206160008201527f6464726573730000000000000000000000000000000000000000000000000000602082015250565b60006112a1602683610f80565b91506112ac82611245565b604082019050919050565b600060208201905081810360008301526112d081611294565b9050919050565b7f526566756e64457363726f773a2063616e206f6e6c79206465706f736974207760008201527f68696c6520616374697665000000000000000000000000000000000000000000602082015250565b6000611333602b83610f80565b915061133e826112d7565b604082019050919050565b6000602082019050818103600083015261136281611326565b9050919050565b7f416464726573733a20696e73756666696369656e742062616c616e6365000000600082015250565b600061139f601d83610f80565b91506113aa82611369565b602082019050919050565b600060208201905081810360008301526113ce81611392565b9050919050565b600081905092915050565b50565b60006113f06000836113d5565b91506113fb826113e0565b600082019050919050565b6000611411826113e3565b9150819050919050565b7f416464726573733a20756e61626c6520746f2073656e642076616c75652c207260008201527f6563697069656e74206d61792068617665207265766572746564000000000000602082015250565b6000611477603a83610f80565b91506114828261141b565b604082019050919050565b600060208201905081810360008301526114a68161146a565b9050919050565b7f4e487b7100000000000000000000000000000000000000000000000000000000600052601160045260246000fd5b60006114e782610f4c565b91506114f283610f4c565b9250827fffffffffffffffffffffffffffffffffffffffffffffffffffffffffffffffff03821115611527576115266114ad565b5b82820190509291505056fea26469706673582212201a2db924839555eafcfedc9a6857444913fb82a85fa896cfeee3795bcd36023164736f6c63430008090033",
  "immutableReferences": {},
  "source": "// SPDX-License-Identifier: MIT\npragma solidity ^0.8.2;\n\nimport './crowdsale/Crowdsale.sol';\nimport './crowdsale/validation/TimedCrowdsale.sol';\nimport \"./crowdsale/distribution/RefundablePostDeliveryCrowdsale.sol\";\n\ncontract GamaxTokenCrowdsale is RefundablePostDeliveryCrowdsale {\n\n    constructor(\n        uint256 rate_,\n        address payable wallet_,\n        IERC20 token_,\n        uint256 openingTime_,\n        uint256 closingTime_,\n        uint256 goal_\n    )\n        PostDeliveryCrowdsale()\n        TimedCrowdsale(openingTime_, closingTime_)\n        RefundableCrowdsale(goal_)\n        Crowdsale(rate_, wallet_, token_)\n    {}\n\n    /**\n     * @dev Set the balance for this crowdsale.\n     */\n    function setTokenBalance() public onlyOwner {\n      _setTokenBalance();\n    }\n\n    /**\n     * @dev Finalize this crowdsale enabling refund if the goal hasn't been reached or enable investor to withdraw their tokens\n     */\n    function finalize() public override onlyOwner {\n      if(_closingTime > block.timestamp)\n        _closingTime = block.timestamp - 1;\n\n      super.finalize();\n    }\n\n    /**\n     * @dev if exists any remaining tokens, transfer to the wallet address avoiding stuck tokens\n     * Check if the goal was reached to only transfer the value not sold to avoid removing purchased tokens from their owners\n     * Otherwise transfer all tokens to the wallet considering that the refund is enable\n     */\n    function withdrawRemainingTokens() public onlyOwner {\n      require(hasClosed(), 'The crowdsale is not closed yet');\n      require(finalized(), 'the crowdsale is not finalized yet');\n      require(tokenBalance() > 0, 'Only available if tokenBalance is greater than zero');\n      if(goalReached())\n        token().transfer(wallet(), tokenBalance());\n      else\n      {\n        uint256 currentBalance = token().balanceOf(address(this));\n        require(currentBalance > 0, 'There is no balance available to transfer');\n        token().transfer(wallet(), currentBalance);\n      }\n    }\n\n    /**\n     * @dev Extend crowdsale only if the crowdsale is not closed\n     * @param newClosingTime Crowdsale closing time\n     */\n    function extendTime(uint256 newClosingTime) public onlyOwner {\n      _extendTime(newClosingTime);\n    }\n}\n",
  "sourcePath": "/Users/jasielmacedo/http/code/personal/solidity-exchange-smart-contract/contracts/GamaxTokenCrowdsale.sol",
  "compiler": {
    "name": "solc",
    "version": "0.8.9+commit.e5eed63a.Emscripten.clang"
  },
  "schemaVersion": "3.4.3",
  "updatedAt": "2021-11-03T19:43:04.601Z",
  "devdoc": {
    "kind": "dev",
    "methods": {
      "balanceOf(address)": {
        "returns": {
          "_0": "the balance of an account."
        }
      },
      "buyTokens(address)": {
        "details": "low level token purchase ***DO NOT OVERRIDE*** This function has a non-reentrancy guard, so it shouldn't be called by another `nonReentrant` function.",
        "params": {
          "beneficiary": "Recipient of the token purchase"
        }
      },
      "claimRefund(address)": {
        "details": "Investors can claim refunds here if crowdsale is unsuccessful.",
        "params": {
          "refundee": "Whose refund will be claimed."
        }
      },
      "closingTime()": {
        "returns": {
          "_0": "the crowdsale closing time."
        }
      },
      "extendTime(uint256)": {
        "details": "Extend crowdsale only if the crowdsale is not closed",
        "params": {
          "newClosingTime": "Crowdsale closing time"
        }
      },
      "finalize()": {
        "details": "Finalize this crowdsale enabling refund if the goal hasn't been reached or enable investor to withdraw their tokens"
      },
      "finalized()": {
        "returns": {
          "_0": "true if the crowdsale is finalized, false otherwise."
        }
      },
      "goal()": {
        "returns": {
          "_0": "minimum amount of funds to be raised in wei."
        }
      },
      "goalReached()": {
        "details": "Checks whether funding goal was reached.",
        "returns": {
          "_0": "Whether funding goal was reached"
        }
      },
      "hasClosed()": {
        "details": "Checks whether the period in which the crowdsale is open has already elapsed.",
        "returns": {
          "_0": "Whether crowdsale period has elapsed"
        }
      },
      "isOpen()": {
        "returns": {
          "_0": "true if the crowdsale is open, false otherwise."
        }
      },
      "openingTime()": {
        "returns": {
          "_0": "the crowdsale opening time."
        }
      },
      "owner()": {
        "details": "Returns the address of the current owner."
      },
      "rate()": {
        "returns": {
          "_0": "the number of token units a buyer gets per wei."
        }
      },
      "renounceOwnership()": {
        "details": "Leaves the contract without owner. It will not be possible to call `onlyOwner` functions anymore. Can only be called by the current owner. NOTE: Renouncing ownership will leave the contract without an owner, thereby removing any functionality that is only available to the owner."
      },
      "setTokenBalance()": {
        "details": "Set the balance for this crowdsale."
      },
      "token()": {
        "returns": {
          "_0": "the token being sold."
        }
      },
      "tokenBalance()": {
        "returns": {
          "_0": "the token balance available to buy."
        }
      },
      "transferOwnership(address)": {
        "details": "Transfers ownership of the contract to a new account (`newOwner`). Can only be called by the current owner."
      },
      "wallet()": {
        "returns": {
          "_0": "the address where funds are collected."
        }
      },
      "weiRaised()": {
        "returns": {
          "_0": "the amount of wei raised."
        }
      },
      "withdrawRemainingTokens()": {
        "details": "if exists any remaining tokens, transfer to the wallet address avoiding stuck tokens Check if the goal was reached to only transfer the value not sold to avoid removing purchased tokens from their owners Otherwise transfer all tokens to the wallet considering that the refund is enable"
      },
      "withdrawTokens()": {
        "details": "Withdraw tokens only after crowdsale ends."
      }
    },
    "version": 1
  },
  "userdoc": {
    "events": {
      "TimedCrowdsaleExtended(uint256,uint256)": {
        "notice": "Event for crowdsale extending"
      },
      "TokensPurchased(address,address,uint256,uint256)": {
        "notice": "Event for token purchase logging"
      }
    },
    "kind": "user",
    "methods": {},
    "version": 1
  }
}