{
  "contractName": "GameTokenPoolExchange",
  "abi": [
    {
      "inputs": [
        {
          "internalType": "address",
          "name": "gameToken",
          "type": "address"
        }
      ],
      "stateMutability": "nonpayable",
      "type": "constructor"
    },
    {
      "anonymous": false,
      "inputs": [
        {
          "indexed": true,
          "internalType": "address",
          "name": "previousOwner",
          "type": "address"
        },
        {
          "indexed": true,
          "internalType": "address",
          "name": "newOwner",
          "type": "address"
        }
      ],
      "name": "OwnershipTransferred",
      "type": "event"
    },
    {
      "anonymous": false,
      "inputs": [
        {
          "indexed": false,
          "internalType": "address",
          "name": "account",
          "type": "address"
        }
      ],
      "name": "Paused",
      "type": "event"
    },
    {
      "anonymous": false,
      "inputs": [
        {
          "indexed": false,
          "internalType": "address",
          "name": "buyer",
          "type": "address"
        },
        {
          "indexed": false,
          "internalType": "address",
          "name": "token",
          "type": "address"
        },
        {
          "indexed": false,
          "internalType": "uint256",
          "name": "amount",
          "type": "uint256"
        },
        {
          "indexed": false,
          "internalType": "uint256",
          "name": "rate",
          "type": "uint256"
        }
      ],
      "name": "TokenPurchased",
      "type": "event"
    },
    {
      "anonymous": false,
      "inputs": [
        {
          "indexed": false,
          "internalType": "address",
          "name": "account",
          "type": "address"
        }
      ],
      "name": "Unpaused",
      "type": "event"
    },
    {
      "inputs": [],
      "name": "buyTokens",
      "outputs": [],
      "stateMutability": "payable",
      "type": "function",
      "payable": true
    },
    {
      "inputs": [],
      "name": "owner",
      "outputs": [
        {
          "internalType": "address",
          "name": "",
          "type": "address"
        }
      ],
      "stateMutability": "view",
      "type": "function",
      "constant": true
    },
    {
      "inputs": [],
      "name": "pause",
      "outputs": [],
      "stateMutability": "nonpayable",
      "type": "function"
    },
    {
      "inputs": [],
      "name": "paused",
      "outputs": [
        {
          "internalType": "bool",
          "name": "",
          "type": "bool"
        }
      ],
      "stateMutability": "view",
      "type": "function",
      "constant": true
    },
    {
      "inputs": [],
      "name": "rate",
      "outputs": [
        {
          "internalType": "uint256",
          "name": "",
          "type": "uint256"
        }
      ],
      "stateMutability": "view",
      "type": "function",
      "constant": true
    },
    {
      "inputs": [],
      "name": "renounceOwnership",
      "outputs": [],
      "stateMutability": "nonpayable",
      "type": "function"
    },
    {
      "inputs": [
        {
          "internalType": "uint256",
          "name": "rate_",
          "type": "uint256"
        }
      ],
      "name": "setRate",
      "outputs": [],
      "stateMutability": "nonpayable",
      "type": "function"
    },
    {
      "inputs": [
        {
          "internalType": "address",
          "name": "purchasableToken",
          "type": "address"
        }
      ],
      "name": "setToken",
      "outputs": [],
      "stateMutability": "nonpayable",
      "type": "function"
    },
    {
      "inputs": [],
      "name": "tokenBalance",
      "outputs": [
        {
          "internalType": "uint256",
          "name": "",
          "type": "uint256"
        }
      ],
      "stateMutability": "view",
      "type": "function",
      "constant": true
    },
    {
      "inputs": [
        {
          "internalType": "address",
          "name": "newOwner",
          "type": "address"
        }
      ],
      "name": "transferOwnership",
      "outputs": [],
      "stateMutability": "nonpayable",
      "type": "function"
    },
    {
      "inputs": [],
      "name": "unpause",
      "outputs": [],
      "stateMutability": "nonpayable",
      "type": "function"
    }
  ],
  "bytecode": "0x60806040523480156200001157600080fd5b5060405162001943380380620019438339818101604052810190620000379190620001fb565b8060646200005a6200004e620000c560201b60201c565b620000cd60201b60201c565b60008060146101000a81548160ff02191690831515021790555081600160006101000a81548173ffffffffffffffffffffffffffffffffffffffff021916908373ffffffffffffffffffffffffffffffffffffffff160217905550806002819055505050506200022d565b600033905090565b60008060009054906101000a900473ffffffffffffffffffffffffffffffffffffffff169050816000806101000a81548173ffffffffffffffffffffffffffffffffffffffff021916908373ffffffffffffffffffffffffffffffffffffffff1602179055508173ffffffffffffffffffffffffffffffffffffffff168173ffffffffffffffffffffffffffffffffffffffff167f8be0079c531659141344cd1fd0a4f28419497f9722a3daafe3b4186f6b6457e060405160405180910390a35050565b600080fd5b600073ffffffffffffffffffffffffffffffffffffffff82169050919050565b6000620001c38262000196565b9050919050565b620001d581620001b6565b8114620001e157600080fd5b50565b600081519050620001f581620001ca565b92915050565b60006020828403121562000214576200021362000191565b5b60006200022484828501620001e4565b91505092915050565b611706806200023d6000396000f3fe60806040526004361061009c5760003560e01c8063715018a611610064578063715018a6146101605780638456cb59146101775780638da5cb5b1461018e5780639e1a4d19146101b9578063d0febe4c146101e4578063f2fde38b146101ee5761009c565b8063144fa6d7146100a15780632c4e722e146100ca57806334fcf437146100f55780633f4ba83a1461011e5780635c975abb14610135575b600080fd5b3480156100ad57600080fd5b506100c860048036038101906100c39190610ea7565b610217565b005b3480156100d657600080fd5b506100df6102d7565b6040516100ec9190610eed565b60405180910390f35b34801561010157600080fd5b5061011c60048036038101906101179190610f34565b6102e1565b005b34801561012a57600080fd5b50610133610367565b005b34801561014157600080fd5b5061014a6103ed565b6040516101579190610f7c565b60405180910390f35b34801561016c57600080fd5b50610175610403565b005b34801561018357600080fd5b5061018c61048b565b005b34801561019a57600080fd5b506101a3610511565b6040516101b09190610fa6565b60405180910390f35b3480156101c557600080fd5b506101ce61053a565b6040516101db9190610eed565b60405180910390f35b6101ec6105ec565b005b3480156101fa57600080fd5b5061021560048036038101906102109190610ea7565b610833565b005b61021f61092b565b73ffffffffffffffffffffffffffffffffffffffff1661023d610511565b73ffffffffffffffffffffffffffffffffffffffff1614610293576040517f08c379a000000000000000000000000000000000000000000000000000000000815260040161028a9061101e565b60405180910390fd5b80600160006101000a81548173ffffffffffffffffffffffffffffffffffffffff021916908373ffffffffffffffffffffffffffffffffffffffff16021790555050565b6000600254905090565b6102e961092b565b73ffffffffffffffffffffffffffffffffffffffff16610307610511565b73ffffffffffffffffffffffffffffffffffffffff161461035d576040517f08c379a00000000000000000000000000000000000000000000000000000000081526004016103549061101e565b60405180910390fd5b8060028190555050565b61036f61092b565b73ffffffffffffffffffffffffffffffffffffffff1661038d610511565b73ffffffffffffffffffffffffffffffffffffffff16146103e3576040517f08c379a00000000000000000000000000000000000000000000000000000000081526004016103da9061101e565b60405180910390fd5b6103eb610933565b565b60008060149054906101000a900460ff16905090565b61040b61092b565b73ffffffffffffffffffffffffffffffffffffffff16610429610511565b73ffffffffffffffffffffffffffffffffffffffff161461047f576040517f08c379a00000000000000000000000000000000000000000000000000000000081526004016104769061101e565b60405180910390fd5b61048960006109d4565b565b61049361092b565b73ffffffffffffffffffffffffffffffffffffffff166104b1610511565b73ffffffffffffffffffffffffffffffffffffffff1614610507576040517f08c379a00000000000000000000000000000000000000000000000000000000081526004016104fe9061101e565b60405180910390fd5b61050f610a98565b565b60008060009054906101000a900473ffffffffffffffffffffffffffffffffffffffff16905090565b6000600160009054906101000a900473ffffffffffffffffffffffffffffffffffffffff1673ffffffffffffffffffffffffffffffffffffffff166370a08231306040518263ffffffff1660e01b81526004016105979190610fa6565b60206040518083038186803b1580156105af57600080fd5b505afa1580156105c3573d6000803e3d6000fd5b505050506040513d601f19601f820116820180604052508101906105e79190611053565b905090565b6105f46103ed565b15610634576040517f08c379a000000000000000000000000000000000000000000000000000000000815260040161062b906110cc565b60405180910390fd5b60003411610677576040517f08c379a000000000000000000000000000000000000000000000000000000000815260040161066e90611138565b60405180910390fd5b60006106936106846102d7565b34610b3b90919063ffffffff16565b905080600160009054906101000a900473ffffffffffffffffffffffffffffffffffffffff1673ffffffffffffffffffffffffffffffffffffffff166370a08231306040518263ffffffff1660e01b81526004016106f19190610fa6565b60206040518083038186803b15801561070957600080fd5b505afa15801561071d573d6000803e3d6000fd5b505050506040513d601f19601f820116820180604052508101906107419190611053565b1015610782576040517f08c379a0000000000000000000000000000000000000000000000000000000008152600401610779906111ca565b60405180910390fd5b6107cf3382600160009054906101000a900473ffffffffffffffffffffffffffffffffffffffff1673ffffffffffffffffffffffffffffffffffffffff16610b519092919063ffffffff16565b7f8daf503382665d950e449b86172be5222275c90f4ddf69c29fdaa8237a562a6d33600160009054906101000a900473ffffffffffffffffffffffffffffffffffffffff168360025460405161082894939291906111ea565b60405180910390a150565b61083b61092b565b73ffffffffffffffffffffffffffffffffffffffff16610859610511565b73ffffffffffffffffffffffffffffffffffffffff16146108af576040517f08c379a00000000000000000000000000000000000000000000000000000000081526004016108a69061101e565b60405180910390fd5b600073ffffffffffffffffffffffffffffffffffffffff168173ffffffffffffffffffffffffffffffffffffffff16141561091f576040517f08c379a0000000000000000000000000000000000000000000000000000000008152600401610916906112a1565b60405180910390fd5b610928816109d4565b50565b600033905090565b61093b6103ed565b61097a576040517f08c379a00000000000000000000000000000000000000000000000000000000081526004016109719061130d565b60405180910390fd5b60008060146101000a81548160ff0219169083151502179055507f5db9ee0a495bf2e6ff9c91a7834c1ba4fdd244a5e8aa4e537bd38aeae4b073aa6109bd61092b565b6040516109ca9190610fa6565b60405180910390a1565b60008060009054906101000a900473ffffffffffffffffffffffffffffffffffffffff169050816000806101000a81548173ffffffffffffffffffffffffffffffffffffffff021916908373ffffffffffffffffffffffffffffffffffffffff1602179055508173ffffffffffffffffffffffffffffffffffffffff168173ffffffffffffffffffffffffffffffffffffffff167f8be0079c531659141344cd1fd0a4f28419497f9722a3daafe3b4186f6b6457e060405160405180910390a35050565b610aa06103ed565b15610ae0576040517f08c379a0000000000000000000000000000000000000000000000000000000008152600401610ad7906110cc565b60405180910390fd5b6001600060146101000a81548160ff0219169083151502179055507f62e78cea01bee320cd4e420270b5ea74000d11b0c9f74754ebdbfc544b05a258610b2461092b565b604051610b319190610fa6565b60405180910390a1565b60008183610b49919061135c565b905092915050565b610bd28363a9059cbb60e01b8484604051602401610b709291906113b6565b604051602081830303815290604052907bffffffffffffffffffffffffffffffffffffffffffffffffffffffff19166020820180517bffffffffffffffffffffffffffffffffffffffffffffffffffffffff8381831617835250505050610bd7565b505050565b6000610c39826040518060400160405280602081526020017f5361666545524332303a206c6f772d6c6576656c2063616c6c206661696c65648152508573ffffffffffffffffffffffffffffffffffffffff16610c9e9092919063ffffffff16565b9050600081511115610c995780806020019051810190610c59919061140b565b610c98576040517f08c379a0000000000000000000000000000000000000000000000000000000008152600401610c8f906114aa565b60405180910390fd5b5b505050565b6060610cad8484600085610cb6565b90509392505050565b606082471015610cfb576040517f08c379a0000000000000000000000000000000000000000000000000000000008152600401610cf29061153c565b60405180910390fd5b610d0485610dca565b610d43576040517f08c379a0000000000000000000000000000000000000000000000000000000008152600401610d3a906115a8565b60405180910390fd5b6000808673ffffffffffffffffffffffffffffffffffffffff168587604051610d6c9190611642565b60006040518083038185875af1925050503d8060008114610da9576040519150601f19603f3d011682016040523d82523d6000602084013e610dae565b606091505b5091509150610dbe828286610ddd565b92505050949350505050565b600080823b905060008111915050919050565b60608315610ded57829050610e3d565b600083511115610e005782518084602001fd5b816040517f08c379a0000000000000000000000000000000000000000000000000000000008152600401610e3491906116ae565b60405180910390fd5b9392505050565b600080fd5b600073ffffffffffffffffffffffffffffffffffffffff82169050919050565b6000610e7482610e49565b9050919050565b610e8481610e69565b8114610e8f57600080fd5b50565b600081359050610ea181610e7b565b92915050565b600060208284031215610ebd57610ebc610e44565b5b6000610ecb84828501610e92565b91505092915050565b6000819050919050565b610ee781610ed4565b82525050565b6000602082019050610f026000830184610ede565b92915050565b610f1181610ed4565b8114610f1c57600080fd5b50565b600081359050610f2e81610f08565b92915050565b600060208284031215610f4a57610f49610e44565b5b6000610f5884828501610f1f565b91505092915050565b60008115159050919050565b610f7681610f61565b82525050565b6000602082019050610f916000830184610f6d565b92915050565b610fa081610e69565b82525050565b6000602082019050610fbb6000830184610f97565b92915050565b600082825260208201905092915050565b7f4f776e61626c653a2063616c6c6572206973206e6f7420746865206f776e6572600082015250565b6000611008602083610fc1565b915061101382610fd2565b602082019050919050565b6000602082019050818103600083015261103781610ffb565b9050919050565b60008151905061104d81610f08565b92915050565b60006020828403121561106957611068610e44565b5b60006110778482850161103e565b91505092915050565b7f5061757361626c653a2070617573656400000000000000000000000000000000600082015250565b60006110b6601083610fc1565b91506110c182611080565b602082019050919050565b600060208201905081810360008301526110e5816110a9565b9050919050565b7f76616c75652068617320746f2062652067726561746572207468616e20300000600082015250565b6000611122601e83610fc1565b915061112d826110ec565b602082019050919050565b6000602082019050818103600083015261115181611115565b9050919050565b7f6c697175696469747920706f6f6c206861736e277420656e6f75676820746f6b60008201527f656e000000000000000000000000000000000000000000000000000000000000602082015250565b60006111b4602283610fc1565b91506111bf82611158565b604082019050919050565b600060208201905081810360008301526111e3816111a7565b9050919050565b60006080820190506111ff6000830187610f97565b61120c6020830186610f97565b6112196040830185610ede565b6112266060830184610ede565b95945050505050565b7f4f776e61626c653a206e6577206f776e657220697320746865207a65726f206160008201527f6464726573730000000000000000000000000000000000000000000000000000602082015250565b600061128b602683610fc1565b91506112968261122f565b604082019050919050565b600060208201905081810360008301526112ba8161127e565b9050919050565b7f5061757361626c653a206e6f7420706175736564000000000000000000000000600082015250565b60006112f7601483610fc1565b9150611302826112c1565b602082019050919050565b60006020820190508181036000830152611326816112ea565b9050919050565b7f4e487b7100000000000000000000000000000000000000000000000000000000600052601160045260246000fd5b600061136782610ed4565b915061137283610ed4565b9250817fffffffffffffffffffffffffffffffffffffffffffffffffffffffffffffffff04831182151516156113ab576113aa61132d565b5b828202905092915050565b60006040820190506113cb6000830185610f97565b6113d86020830184610ede565b9392505050565b6113e881610f61565b81146113f357600080fd5b50565b600081519050611405816113df565b92915050565b60006020828403121561142157611420610e44565b5b600061142f848285016113f6565b91505092915050565b7f5361666545524332303a204552433230206f7065726174696f6e20646964206e60008201527f6f74207375636365656400000000000000000000000000000000000000000000602082015250565b6000611494602a83610fc1565b915061149f82611438565b604082019050919050565b600060208201905081810360008301526114c381611487565b9050919050565b7f416464726573733a20696e73756666696369656e742062616c616e636520666f60008201527f722063616c6c0000000000000000000000000000000000000000000000000000602082015250565b6000611526602683610fc1565b9150611531826114ca565b604082019050919050565b6000602082019050818103600083015261155581611519565b9050919050565b7f416464726573733a2063616c6c20746f206e6f6e2d636f6e7472616374000000600082015250565b6000611592601d83610fc1565b915061159d8261155c565b602082019050919050565b600060208201905081810360008301526115c181611585565b9050919050565b600081519050919050565b600081905092915050565b60005b838110156115fc5780820151818401526020810190506115e1565b8381111561160b576000848401525b50505050565b600061161c826115c8565b61162681856115d3565b93506116368185602086016115de565b80840191505092915050565b600061164e8284611611565b915081905092915050565b600081519050919050565b6000601f19601f8301169050919050565b600061168082611659565b61168a8185610fc1565b935061169a8185602086016115de565b6116a381611664565b840191505092915050565b600060208201905081810360008301526116c88184611675565b90509291505056fea2646970667358221220530480bc030c81a56623f847285d26cf984181ca5b32b23bdbc0d45dc09d05fb64736f6c63430008090033",
  "immutableReferences": {},
  "source": "// SPDX-License-Identifier: MIT\npragma solidity ^0.8.2;\n\nimport \"./TokenExchange.sol\";\n\ncontract GameTokenPoolExchange is TokenExchange {\n  constructor(address gameToken) TokenExchange(gameToken, 100) {}\n}\n",
  "sourcePath": "/Users/jasielmacedo/http/code/personal/solidity-exchange-smart-contract/contracts/GameTokenPoolExchange.sol",
  "compiler": {
    "name": "solc",
    "version": "0.8.9+commit.e5eed63a.Emscripten.clang"
  },
  "schemaVersion": "3.4.3",
  "updatedAt": "2021-10-30T20:43:08.177Z",
  "networkType": "ethereum",
  "devdoc": {
    "kind": "dev",
    "methods": {
      "owner()": {
        "details": "Returns the address of the current owner."
      },
      "paused()": {
        "details": "Returns true if the contract is paused, and false otherwise."
      },
      "renounceOwnership()": {
        "details": "Leaves the contract without owner. It will not be possible to call `onlyOwner` functions anymore. Can only be called by the current owner. NOTE: Renouncing ownership will leave the contract without an owner, thereby removing any functionality that is only available to the owner."
      },
      "transferOwnership(address)": {
        "details": "Transfers ownership of the contract to a new account (`newOwner`). Can only be called by the current owner."
      }
    },
    "version": 1
  },
  "userdoc": {
    "kind": "user",
    "methods": {},
    "version": 1
  }
}