{
  "contractName": "GameTokenPoolExchange",
  "abi": [
    {
      "inputs": [
        {
          "internalType": "address",
          "name": "gameToken",
          "type": "address"
        }
      ],
      "stateMutability": "nonpayable",
      "type": "constructor"
    },
    {
      "anonymous": false,
      "inputs": [
        {
          "indexed": true,
          "internalType": "address",
          "name": "previousOwner",
          "type": "address"
        },
        {
          "indexed": true,
          "internalType": "address",
          "name": "newOwner",
          "type": "address"
        }
      ],
      "name": "OwnershipTransferred",
      "type": "event"
    },
    {
      "anonymous": false,
      "inputs": [
        {
          "indexed": false,
          "internalType": "address",
          "name": "account",
          "type": "address"
        }
      ],
      "name": "Paused",
      "type": "event"
    },
    {
      "anonymous": false,
      "inputs": [
        {
          "indexed": false,
          "internalType": "address",
          "name": "buyer",
          "type": "address"
        },
        {
          "indexed": false,
          "internalType": "address",
          "name": "token",
          "type": "address"
        },
        {
          "indexed": false,
          "internalType": "uint256",
          "name": "amount",
          "type": "uint256"
        },
        {
          "indexed": false,
          "internalType": "uint256",
          "name": "rate",
          "type": "uint256"
        }
      ],
      "name": "TokenPurchased",
      "type": "event"
    },
    {
      "anonymous": false,
      "inputs": [
        {
          "indexed": false,
          "internalType": "address",
          "name": "account",
          "type": "address"
        }
      ],
      "name": "Unpaused",
      "type": "event"
    },
    {
      "inputs": [],
      "name": "buyTokens",
      "outputs": [],
      "stateMutability": "payable",
      "type": "function",
      "payable": true
    },
    {
      "inputs": [],
      "name": "owner",
      "outputs": [
        {
          "internalType": "address",
          "name": "",
          "type": "address"
        }
      ],
      "stateMutability": "view",
      "type": "function",
      "constant": true
    },
    {
      "inputs": [],
      "name": "pause",
      "outputs": [],
      "stateMutability": "nonpayable",
      "type": "function"
    },
    {
      "inputs": [],
      "name": "paused",
      "outputs": [
        {
          "internalType": "bool",
          "name": "",
          "type": "bool"
        }
      ],
      "stateMutability": "view",
      "type": "function",
      "constant": true
    },
    {
      "inputs": [],
      "name": "rate",
      "outputs": [
        {
          "internalType": "uint256",
          "name": "",
          "type": "uint256"
        }
      ],
      "stateMutability": "view",
      "type": "function",
      "constant": true
    },
    {
      "inputs": [],
      "name": "renounceOwnership",
      "outputs": [],
      "stateMutability": "nonpayable",
      "type": "function"
    },
    {
      "inputs": [
        {
          "internalType": "uint256",
          "name": "rate_",
          "type": "uint256"
        }
      ],
      "name": "setRate",
      "outputs": [],
      "stateMutability": "nonpayable",
      "type": "function"
    },
    {
      "inputs": [
        {
          "internalType": "address",
          "name": "purchasableToken",
          "type": "address"
        }
      ],
      "name": "setToken",
      "outputs": [],
      "stateMutability": "nonpayable",
      "type": "function"
    },
    {
      "inputs": [],
      "name": "tokenBalance",
      "outputs": [
        {
          "internalType": "uint256",
          "name": "",
          "type": "uint256"
        }
      ],
      "stateMutability": "view",
      "type": "function",
      "constant": true
    },
    {
      "inputs": [
        {
          "internalType": "address",
          "name": "newOwner",
          "type": "address"
        }
      ],
      "name": "transferOwnership",
      "outputs": [],
      "stateMutability": "nonpayable",
      "type": "function"
    },
    {
      "inputs": [],
      "name": "unpause",
      "outputs": [],
      "stateMutability": "nonpayable",
      "type": "function"
    },
    {
      "inputs": [],
      "name": "withdraw",
      "outputs": [],
      "stateMutability": "payable",
      "type": "function",
      "payable": true
    }
  ],
  "bytecode": "0x60806040523480156200001157600080fd5b50604051620019ec380380620019ec8339818101604052810190620000379190620001fb565b8060646200005a6200004e620000c560201b60201c565b620000cd60201b60201c565b60008060146101000a81548160ff02191690831515021790555081600160006101000a81548173ffffffffffffffffffffffffffffffffffffffff021916908373ffffffffffffffffffffffffffffffffffffffff160217905550806002819055505050506200022d565b600033905090565b60008060009054906101000a900473ffffffffffffffffffffffffffffffffffffffff169050816000806101000a81548173ffffffffffffffffffffffffffffffffffffffff021916908373ffffffffffffffffffffffffffffffffffffffff1602179055508173ffffffffffffffffffffffffffffffffffffffff168173ffffffffffffffffffffffffffffffffffffffff167f8be0079c531659141344cd1fd0a4f28419497f9722a3daafe3b4186f6b6457e060405160405180910390a35050565b600080fd5b600073ffffffffffffffffffffffffffffffffffffffff82169050919050565b6000620001c38262000196565b9050919050565b620001d581620001b6565b8114620001e157600080fd5b50565b600081519050620001f581620001ca565b92915050565b60006020828403121562000214576200021362000191565b5b60006200022484828501620001e4565b91505092915050565b6117af806200023d6000396000f3fe6080604052600436106100a75760003560e01c8063715018a611610064578063715018a6146101755780638456cb591461018c5780638da5cb5b146101a35780639e1a4d19146101ce578063d0febe4c146101f9578063f2fde38b14610203576100a7565b8063144fa6d7146100ac5780632c4e722e146100d557806334fcf437146101005780633ccfd60b146101295780633f4ba83a146101335780635c975abb1461014a575b600080fd5b3480156100b857600080fd5b506100d360048036038101906100ce9190610f15565b61022c565b005b3480156100e157600080fd5b506100ea6102ec565b6040516100f79190610f5b565b60405180910390f35b34801561010c57600080fd5b5061012760048036038101906101229190610fa2565b6102f6565b005b61013161037c565b005b34801561013f57600080fd5b50610148610478565b005b34801561015657600080fd5b5061015f6104fe565b60405161016c9190610fea565b60405180910390f35b34801561018157600080fd5b5061018a610514565b005b34801561019857600080fd5b506101a161059c565b005b3480156101af57600080fd5b506101b8610622565b6040516101c59190611014565b60405180910390f35b3480156101da57600080fd5b506101e361064b565b6040516101f09190610f5b565b60405180910390f35b6102016106fd565b005b34801561020f57600080fd5b5061022a60048036038101906102259190610f15565b6108a1565b005b610234610999565b73ffffffffffffffffffffffffffffffffffffffff16610252610622565b73ffffffffffffffffffffffffffffffffffffffff16146102a8576040517f08c379a000000000000000000000000000000000000000000000000000000000815260040161029f9061108c565b60405180910390fd5b80600160006101000a81548173ffffffffffffffffffffffffffffffffffffffff021916908373ffffffffffffffffffffffffffffffffffffffff16021790555050565b6000600254905090565b6102fe610999565b73ffffffffffffffffffffffffffffffffffffffff1661031c610622565b73ffffffffffffffffffffffffffffffffffffffff1614610372576040517f08c379a00000000000000000000000000000000000000000000000000000000081526004016103699061108c565b60405180910390fd5b8060028190555050565b610384610999565b73ffffffffffffffffffffffffffffffffffffffff166103a2610622565b73ffffffffffffffffffffffffffffffffffffffff16146103f8576040517f08c379a00000000000000000000000000000000000000000000000000000000081526004016103ef9061108c565b60405180910390fd5b6000610402610622565b73ffffffffffffffffffffffffffffffffffffffff1647604051610425906110dd565b60006040518083038185875af1925050503d8060008114610462576040519150601f19603f3d011682016040523d82523d6000602084013e610467565b606091505b505090508061047557600080fd5b50565b610480610999565b73ffffffffffffffffffffffffffffffffffffffff1661049e610622565b73ffffffffffffffffffffffffffffffffffffffff16146104f4576040517f08c379a00000000000000000000000000000000000000000000000000000000081526004016104eb9061108c565b60405180910390fd5b6104fc6109a1565b565b60008060149054906101000a900460ff16905090565b61051c610999565b73ffffffffffffffffffffffffffffffffffffffff1661053a610622565b73ffffffffffffffffffffffffffffffffffffffff1614610590576040517f08c379a00000000000000000000000000000000000000000000000000000000081526004016105879061108c565b60405180910390fd5b61059a6000610a42565b565b6105a4610999565b73ffffffffffffffffffffffffffffffffffffffff166105c2610622565b73ffffffffffffffffffffffffffffffffffffffff1614610618576040517f08c379a000000000000000000000000000000000000000000000000000000000815260040161060f9061108c565b60405180910390fd5b610620610b06565b565b60008060009054906101000a900473ffffffffffffffffffffffffffffffffffffffff16905090565b6000600160009054906101000a900473ffffffffffffffffffffffffffffffffffffffff1673ffffffffffffffffffffffffffffffffffffffff166370a08231306040518263ffffffff1660e01b81526004016106a89190611014565b60206040518083038186803b1580156106c057600080fd5b505afa1580156106d4573d6000803e3d6000fd5b505050506040513d601f19601f820116820180604052508101906106f89190611107565b905090565b6107056104fe565b15610745576040517f08c379a000000000000000000000000000000000000000000000000000000000815260040161073c90611180565b60405180910390fd5b60003411610788576040517f08c379a000000000000000000000000000000000000000000000000000000000815260040161077f906111ec565b60405180910390fd5b60006107a46107956102ec565b34610ba990919063ffffffff16565b9050806107af61064b565b10156107f0576040517f08c379a00000000000000000000000000000000000000000000000000000000081526004016107e79061127e565b60405180910390fd5b61083d3382600160009054906101000a900473ffffffffffffffffffffffffffffffffffffffff1673ffffffffffffffffffffffffffffffffffffffff16610bbf9092919063ffffffff16565b7f8daf503382665d950e449b86172be5222275c90f4ddf69c29fdaa8237a562a6d33600160009054906101000a900473ffffffffffffffffffffffffffffffffffffffff1683600254604051610896949392919061129e565b60405180910390a150565b6108a9610999565b73ffffffffffffffffffffffffffffffffffffffff166108c7610622565b73ffffffffffffffffffffffffffffffffffffffff161461091d576040517f08c379a00000000000000000000000000000000000000000000000000000000081526004016109149061108c565b60405180910390fd5b600073ffffffffffffffffffffffffffffffffffffffff168173ffffffffffffffffffffffffffffffffffffffff16141561098d576040517f08c379a000000000000000000000000000000000000000000000000000000000815260040161098490611355565b60405180910390fd5b61099681610a42565b50565b600033905090565b6109a96104fe565b6109e8576040517f08c379a00000000000000000000000000000000000000000000000000000000081526004016109df906113c1565b60405180910390fd5b60008060146101000a81548160ff0219169083151502179055507f5db9ee0a495bf2e6ff9c91a7834c1ba4fdd244a5e8aa4e537bd38aeae4b073aa610a2b610999565b604051610a389190611014565b60405180910390a1565b60008060009054906101000a900473ffffffffffffffffffffffffffffffffffffffff169050816000806101000a81548173ffffffffffffffffffffffffffffffffffffffff021916908373ffffffffffffffffffffffffffffffffffffffff1602179055508173ffffffffffffffffffffffffffffffffffffffff168173ffffffffffffffffffffffffffffffffffffffff167f8be0079c531659141344cd1fd0a4f28419497f9722a3daafe3b4186f6b6457e060405160405180910390a35050565b610b0e6104fe565b15610b4e576040517f08c379a0000000000000000000000000000000000000000000000000000000008152600401610b4590611180565b60405180910390fd5b6001600060146101000a81548160ff0219169083151502179055507f62e78cea01bee320cd4e420270b5ea74000d11b0c9f74754ebdbfc544b05a258610b92610999565b604051610b9f9190611014565b60405180910390a1565b60008183610bb79190611410565b905092915050565b610c408363a9059cbb60e01b8484604051602401610bde92919061146a565b604051602081830303815290604052907bffffffffffffffffffffffffffffffffffffffffffffffffffffffff19166020820180517bffffffffffffffffffffffffffffffffffffffffffffffffffffffff8381831617835250505050610c45565b505050565b6000610ca7826040518060400160405280602081526020017f5361666545524332303a206c6f772d6c6576656c2063616c6c206661696c65648152508573ffffffffffffffffffffffffffffffffffffffff16610d0c9092919063ffffffff16565b9050600081511115610d075780806020019051810190610cc791906114bf565b610d06576040517f08c379a0000000000000000000000000000000000000000000000000000000008152600401610cfd9061155e565b60405180910390fd5b5b505050565b6060610d1b8484600085610d24565b90509392505050565b606082471015610d69576040517f08c379a0000000000000000000000000000000000000000000000000000000008152600401610d60906115f0565b60405180910390fd5b610d7285610e38565b610db1576040517f08c379a0000000000000000000000000000000000000000000000000000000008152600401610da89061165c565b60405180910390fd5b6000808673ffffffffffffffffffffffffffffffffffffffff168587604051610dda91906116eb565b60006040518083038185875af1925050503d8060008114610e17576040519150601f19603f3d011682016040523d82523d6000602084013e610e1c565b606091505b5091509150610e2c828286610e4b565b92505050949350505050565b600080823b905060008111915050919050565b60608315610e5b57829050610eab565b600083511115610e6e5782518084602001fd5b816040517f08c379a0000000000000000000000000000000000000000000000000000000008152600401610ea29190611757565b60405180910390fd5b9392505050565b600080fd5b600073ffffffffffffffffffffffffffffffffffffffff82169050919050565b6000610ee282610eb7565b9050919050565b610ef281610ed7565b8114610efd57600080fd5b50565b600081359050610f0f81610ee9565b92915050565b600060208284031215610f2b57610f2a610eb2565b5b6000610f3984828501610f00565b91505092915050565b6000819050919050565b610f5581610f42565b82525050565b6000602082019050610f706000830184610f4c565b92915050565b610f7f81610f42565b8114610f8a57600080fd5b50565b600081359050610f9c81610f76565b92915050565b600060208284031215610fb857610fb7610eb2565b5b6000610fc684828501610f8d565b91505092915050565b60008115159050919050565b610fe481610fcf565b82525050565b6000602082019050610fff6000830184610fdb565b92915050565b61100e81610ed7565b82525050565b60006020820190506110296000830184611005565b92915050565b600082825260208201905092915050565b7f4f776e61626c653a2063616c6c6572206973206e6f7420746865206f776e6572600082015250565b600061107660208361102f565b915061108182611040565b602082019050919050565b600060208201905081810360008301526110a581611069565b9050919050565b600081905092915050565b50565b60006110c76000836110ac565b91506110d2826110b7565b600082019050919050565b60006110e8826110ba565b9150819050919050565b60008151905061110181610f76565b92915050565b60006020828403121561111d5761111c610eb2565b5b600061112b848285016110f2565b91505092915050565b7f5061757361626c653a2070617573656400000000000000000000000000000000600082015250565b600061116a60108361102f565b915061117582611134565b602082019050919050565b600060208201905081810360008301526111998161115d565b9050919050565b7f76616c75652068617320746f2062652067726561746572207468616e20300000600082015250565b60006111d6601e8361102f565b91506111e1826111a0565b602082019050919050565b60006020820190508181036000830152611205816111c9565b9050919050565b7f6c697175696469747920706f6f6c206861736e277420656e6f75676820746f6b60008201527f656e000000000000000000000000000000000000000000000000000000000000602082015250565b600061126860228361102f565b91506112738261120c565b604082019050919050565b600060208201905081810360008301526112978161125b565b9050919050565b60006080820190506112b36000830187611005565b6112c06020830186611005565b6112cd6040830185610f4c565b6112da6060830184610f4c565b95945050505050565b7f4f776e61626c653a206e6577206f776e657220697320746865207a65726f206160008201527f6464726573730000000000000000000000000000000000000000000000000000602082015250565b600061133f60268361102f565b915061134a826112e3565b604082019050919050565b6000602082019050818103600083015261136e81611332565b9050919050565b7f5061757361626c653a206e6f7420706175736564000000000000000000000000600082015250565b60006113ab60148361102f565b91506113b682611375565b602082019050919050565b600060208201905081810360008301526113da8161139e565b9050919050565b7f4e487b7100000000000000000000000000000000000000000000000000000000600052601160045260246000fd5b600061141b82610f42565b915061142683610f42565b9250817fffffffffffffffffffffffffffffffffffffffffffffffffffffffffffffffff048311821515161561145f5761145e6113e1565b5b828202905092915050565b600060408201905061147f6000830185611005565b61148c6020830184610f4c565b9392505050565b61149c81610fcf565b81146114a757600080fd5b50565b6000815190506114b981611493565b92915050565b6000602082840312156114d5576114d4610eb2565b5b60006114e3848285016114aa565b91505092915050565b7f5361666545524332303a204552433230206f7065726174696f6e20646964206e60008201527f6f74207375636365656400000000000000000000000000000000000000000000602082015250565b6000611548602a8361102f565b9150611553826114ec565b604082019050919050565b600060208201905081810360008301526115778161153b565b9050919050565b7f416464726573733a20696e73756666696369656e742062616c616e636520666f60008201527f722063616c6c0000000000000000000000000000000000000000000000000000602082015250565b60006115da60268361102f565b91506115e58261157e565b604082019050919050565b60006020820190508181036000830152611609816115cd565b9050919050565b7f416464726573733a2063616c6c20746f206e6f6e2d636f6e7472616374000000600082015250565b6000611646601d8361102f565b915061165182611610565b602082019050919050565b6000602082019050818103600083015261167581611639565b9050919050565b600081519050919050565b60005b838110156116a557808201518184015260208101905061168a565b838111156116b4576000848401525b50505050565b60006116c58261167c565b6116cf81856110ac565b93506116df818560208601611687565b80840191505092915050565b60006116f782846116ba565b915081905092915050565b600081519050919050565b6000601f19601f8301169050919050565b600061172982611702565b611733818561102f565b9350611743818560208601611687565b61174c8161170d565b840191505092915050565b60006020820190508181036000830152611771818461171e565b90509291505056fea26469706673582212202cbe00bbdedcc8f2bb0e029ed5af676bea02e81baf65c2f82b720c2977d2d79664736f6c63430008090033",
  "immutableReferences": {},
  "source": "// SPDX-License-Identifier: MIT\npragma solidity ^0.8.2;\n\nimport \"./TokenExchange.sol\";\n\ncontract GameTokenPoolExchange is TokenExchange {\n  constructor(address gameToken) TokenExchange(gameToken, 100) {}\n\n  function withdraw() public payable onlyOwner {\n    (bool os, ) = payable(owner()).call{value: address(this).balance}(\"\");\n    require(os);\n  }\n}\n",
  "sourcePath": "/Users/jasielmacedo/http/code/personal/solidity-exchange-smart-contract/contracts/GameTokenPoolExchange.sol",
  "compiler": {
    "name": "solc",
    "version": "0.8.9+commit.e5eed63a.Emscripten.clang"
  },
  "schemaVersion": "3.4.3",
  "updatedAt": "2021-10-30T22:21:33.754Z",
  "networkType": "ethereum",
  "devdoc": {
    "kind": "dev",
    "methods": {
      "owner()": {
        "details": "Returns the address of the current owner."
      },
      "paused()": {
        "details": "Returns true if the contract is paused, and false otherwise."
      },
      "renounceOwnership()": {
        "details": "Leaves the contract without owner. It will not be possible to call `onlyOwner` functions anymore. Can only be called by the current owner. NOTE: Renouncing ownership will leave the contract without an owner, thereby removing any functionality that is only available to the owner."
      },
      "transferOwnership(address)": {
        "details": "Transfers ownership of the contract to a new account (`newOwner`). Can only be called by the current owner."
      }
    },
    "version": 1
  },
  "userdoc": {
    "kind": "user",
    "methods": {},
    "version": 1
  }
}