{
  "contractName": "Secondary",
  "abi": [
    {
      "inputs": [],
      "stateMutability": "nonpayable",
      "type": "constructor"
    },
    {
      "anonymous": false,
      "inputs": [
        {
          "indexed": false,
          "internalType": "address",
          "name": "recipient",
          "type": "address"
        }
      ],
      "name": "PrimaryTransferred",
      "type": "event"
    },
    {
      "inputs": [],
      "name": "primary",
      "outputs": [
        {
          "internalType": "address",
          "name": "",
          "type": "address"
        }
      ],
      "stateMutability": "view",
      "type": "function"
    },
    {
      "inputs": [
        {
          "internalType": "address",
          "name": "recipient",
          "type": "address"
        }
      ],
      "name": "transferPrimary",
      "outputs": [],
      "stateMutability": "nonpayable",
      "type": "function"
    }
  ],
  "bytecode": "0x608060405234801561001057600080fd5b5060006100216100a060201b60201c565b9050806000806101000a81548173ffffffffffffffffffffffffffffffffffffffff021916908373ffffffffffffffffffffffffffffffffffffffff1602179055507f4101e71e974f68df5e9730cc223280b41654676bbb052cdcc735c3337e64d2d98160405161009291906100e9565b60405180910390a150610104565b600033905090565b600073ffffffffffffffffffffffffffffffffffffffff82169050919050565b60006100d3826100a8565b9050919050565b6100e3816100c8565b82525050565b60006020820190506100fe60008301846100da565b92915050565b61044a806101136000396000f3fe608060405234801561001057600080fd5b50600436106100365760003560e01c80632348238c1461003b578063c6dbdf6114610057575b600080fd5b61005560048036038101906100509190610288565b610075565b005b61005f6101f4565b60405161006c91906102c4565b60405180910390f35b60008054906101000a900473ffffffffffffffffffffffffffffffffffffffff1673ffffffffffffffffffffffffffffffffffffffff166100b461021d565b73ffffffffffffffffffffffffffffffffffffffff161461010a576040517f08c379a000000000000000000000000000000000000000000000000000000000815260040161010190610362565b60405180910390fd5b600073ffffffffffffffffffffffffffffffffffffffff168173ffffffffffffffffffffffffffffffffffffffff16141561017a576040517f08c379a0000000000000000000000000000000000000000000000000000000008152600401610171906103f4565b60405180910390fd5b806000806101000a81548173ffffffffffffffffffffffffffffffffffffffff021916908373ffffffffffffffffffffffffffffffffffffffff1602179055507f4101e71e974f68df5e9730cc223280b41654676bbb052cdcc735c3337e64d2d9816040516101e991906102c4565b60405180910390a150565b60008060009054906101000a900473ffffffffffffffffffffffffffffffffffffffff16905090565b600033905090565b600080fd5b600073ffffffffffffffffffffffffffffffffffffffff82169050919050565b60006102558261022a565b9050919050565b6102658161024a565b811461027057600080fd5b50565b6000813590506102828161025c565b92915050565b60006020828403121561029e5761029d610225565b5b60006102ac84828501610273565b91505092915050565b6102be8161024a565b82525050565b60006020820190506102d960008301846102b5565b92915050565b600082825260208201905092915050565b7f5365636f6e646172793a2063616c6c6572206973206e6f74207468652070726960008201527f6d617279206163636f756e740000000000000000000000000000000000000000602082015250565b600061034c602c836102df565b9150610357826102f0565b604082019050919050565b6000602082019050818103600083015261037b8161033f565b9050919050565b7f5365636f6e646172793a206e6577207072696d61727920697320746865207a6560008201527f726f206164647265737300000000000000000000000000000000000000000000602082015250565b60006103de602a836102df565b91506103e982610382565b604082019050919050565b6000602082019050818103600083015261040d816103d1565b905091905056fea264697066735822122091d7e035e3769e941d225c1d8b0a65ce3432e99636f8f6dcfec770576918eaf364736f6c63430008090033",
  "immutableReferences": {},
  "source": "// SPDX-License-Identifier: MIT\npragma solidity ^0.8.2;\n\nimport \"@openzeppelin/contracts/utils/Context.sol\";\n/**\n * @dev A Secondary contract can only be used by its primary account (the one that created it).\n */\ncontract Secondary is Context {\n    address private _primary;\n\n    /**\n     * @dev Emitted when the primary contract changes.\n     */\n    event PrimaryTransferred(\n        address recipient\n    );\n\n    /**\n     * @dev Sets the primary account to the one that is creating the Secondary contract.\n     */\n    constructor () {\n        address msgSender = _msgSender();\n        _primary = msgSender;\n        emit PrimaryTransferred(msgSender);\n    }\n\n    /**\n     * @dev Reverts if called from any account other than the primary.\n     */\n    modifier onlyPrimary() {\n        require(_msgSender() == _primary, \"Secondary: caller is not the primary account\");\n        _;\n    }\n\n    /**\n     * @return the address of the primary.\n     */\n    function primary() public view returns (address) {\n        return _primary;\n    }\n\n    /**\n     * @dev Transfers contract to a new primary.\n     * @param recipient The address of new primary.\n     */\n    function transferPrimary(address recipient) public onlyPrimary {\n        require(recipient != address(0), \"Secondary: new primary is the zero address\");\n        _primary = recipient;\n        emit PrimaryTransferred(recipient);\n    }\n}\n",
  "sourcePath": "/Users/jasielmacedo/http/code/personal/solidity-exchange-smart-contract/contracts/crowdsale/ownership/Secondary.sol",
  "compiler": {
    "name": "solc",
    "version": "0.8.9+commit.e5eed63a.Emscripten.clang"
  },
  "schemaVersion": "3.4.3",
  "updatedAt": "2021-11-03T13:26:37.924Z",
  "devdoc": {
    "details": "A Secondary contract can only be used by its primary account (the one that created it).",
    "events": {
      "PrimaryTransferred(address)": {
        "details": "Emitted when the primary contract changes."
      }
    },
    "kind": "dev",
    "methods": {
      "constructor": {
        "details": "Sets the primary account to the one that is creating the Secondary contract."
      },
      "primary()": {
        "returns": {
          "_0": "the address of the primary."
        }
      },
      "transferPrimary(address)": {
        "details": "Transfers contract to a new primary.",
        "params": {
          "recipient": "The address of new primary."
        }
      }
    },
    "version": 1
  },
  "userdoc": {
    "kind": "user",
    "methods": {},
    "version": 1
  }
}